:100000000C942A000C9447000C9447000C94470071
:100010000C9447000C9447000C9447000C94580033
:100020000C9447000C9447000C9447000C94470034
:100030000C9447000C9447000C9447000C94470024
:100040000C9447000C9447000C9447000C94470014
:100050000C94470011241FBECFE5D8E0DEBFCDBF12
:1000600010E0A0E6B0E0ECE9F1E002C005900D92EE
:10007000A636B107D9F720E0A6E6B0E001C01D9290
:10008000A736B207E1F70E949D000C94CC000C94B7
:1000900000008EB588608EBD8BED95E09BBD8ABD5E
:1000A00089B7806189BF8EB582608EBD78940895CE
:1000B0001F920F920FB60F9211248F9380916600BA
:1000C0008F5F8093660080916600883C10F01092EC
:1000D00066008F910F900FBE0F901F90189587B3F9
:1000E000836087BBC098C19A089580916200909107
:1000F0006300823391055CF088B392E0892788BB66
:1001000081E090E0909363008093620008950196EF
:10011000F9CF8091600090916100893191055CF088
:1001200088B391E0892788BB81E090E090936100DB
:100130008093600008950196F9CF0E9449000E94C3
:100140006F00C4E1D8E29091640080916600981736
:10015000D1F38091660080936400809166006C2FDB
:100160000E94C000911102C00E947500809166003B
:100170006D2F0E94C0009111E6CF0E948900E3CF4D
:10018000991B79E004C0991F961708F0961B881FE9
:0C0190007A95C9F780950895F894FFCF88
:06019C0001000100FF005C
:00000001FF
