:100000000C942A000C9434000C9434000C943400AA
:100010000C9434000C9434000C9434000C9445007F
:100020000C9434000C9434000C9434000C94340080
:100030000C9434000C9434000C9434000C94340070
:100040000C9434000C9434000C9434000C94340060
:100050000C94340011241FBECFE5D8E0DEBFCDBF25
:100060000E9457000C945D000C9400008EB58860CF
:100070008EBD88E09DE39BBD8ABD89B7806189BF45
:100080008EB583608EBD789408951F920F920FB63F
:100090000F9211248F939F9388B391E0892788BB97
:1000A0009F918F910F900FBE0F901F9018950E94F7
:0E00B00036008FEF87BB18BAFFCFF894FFCF52
:00000001FF
