:020000020000FC
:040000000C9430002C
:04000C000C946900E7
:100060000FE50DBF08E00EBFBA9800E405BF00E23F
:100070000BBF00E80FBFD098D89A889AA09AA89A88
:1000800031E00E948C000E948C000E948C000E9433
:100090008C000E948C000E948C00A8980E948C000A
:1000A00003E0000000000A95F1F70E947E000E9424
:1000B0007E000E947E000E947E000E947E000E94C0
:1000C0007E000E947E000E947E00A89A0E948C0002
:1000D000D8CF0E9499000E948C000E9485000E9447
:1000E00085000E9485000E9485000E9485000E9474
:1000F00085000E9485000E9485001895C89BA89ADB
:10010000C899A8980E948C000895B299909AB29BC1
:1001100090980E948C0008950E9492000E94920084
:10012000000008954AE04A95F1F700000000000041
:0E01300008950EE00A95F1F700000000089512
:00000001FF
