:100000000C942A000C9434000C9434000C943400AA
:100010000C9434000C9434000C9434000C94340090
:100020000C9434000C9446000C9434000C9434006E
:100030000C9434000C9434000C9434000C94340070
:100040000C9434000C9434000C9434000C94340060
:100050000C94340011241FBECFE5D8E0DEBFCDBF25
:100060000E945C000C9462000C9400001FBC8EB5D2
:1000700081608EBD8EB584608EBD89B7846089BF76
:1000800088E19EEF9DBD8CBD789408951F920F92DC
:100090000FB60F9211248F939F9388E19EEF9DBD21
:1000A0008CBD88B391E0892788BB9F918F910F9079
:1000B0000FBE0F901F9018950E9436008FEF87BBE0
:0800C00018BAFFCFF894FFCF3E
:00000001FF
