:100000000C942A000C9434000C9434000C943400AA
:100010000C9434000C9434000C9434000C94340090
:100020000C9434000C9443000C9434000C94340071
:100030000C9434000C9434000C9434000C94340070
:100040000C9434000C9434000C9434000C94340060
:100050000C94340011241FBECFE5D8E0DEBFCDBF25
:100060000E9459000C945F000C9400001FBC8EB5D8
:1000700082608EBD89B7846089BF8CED9BE09DBD99
:100080008CBD789408951F920F920FB60F92112491
:100090008F939F938CED9BE09DBD8CBD88B391E0C9
:1000A000892788BB9F918F910F900FBE0F901F9053
:1000B00018950E9436008FEF87BB18BAFFCFF894CF
:0200C000FFCF70
:00000001FF
