:020000020000FC
:040000000C9430002C
:04000C000C94400010
:100060000FE50DBF08E00EBF0FEF01BBBA9800E42B
:1000700005BF00E20BBF00E80FBF00E002BBFDCFF1
:100080000E9477000E9477000E947700B299909AB0
:100090000E9477000E947700B299919A0E9477009F
:1000A0000E947700B299929A0E9477000E9477008E
:1000B000B299939A0E9477000E947700B299949A1D
:1000C0000E9477000E947700B299959A0E9477006B
:1000D0000E947700B299969A0E9477000E9477005A
:1000E000B299979A0E9477000E94770018950EE0C7
:0A00F0000A95F1F7000000000895E2
:00000001FF
