:100000000C942A000C943C000C943C000C943C0092
:100010000C943C000C943C000C943C000C943C0070
:100020000C943C000C943C000C943C000C94480054
:100030000C943C000C943C000C943C000C943C0050
:100040000C943C000C943C000C943C000C943C0040
:100050000C943C0011241FBECFE5D8E0DEBFCDBF1D
:1000600020E0A0E6B0E001C01D92A236B207E1F7A1
:100070000E9466000C946C000C94000083B78560AD
:1000800083BF89B7816089BF8AE082BF7894089571
:100090001F920F920FB60F9211248F939F938AE0B5
:1000A00082BF81E090E0909361008093600088B30C
:1000B00091E0892788BB10926100109260009F91A7
:1000C0008F910F900FBE0F901F9018950E943E00C9
:0C00D0008FEF87BB18BAFFCFF894FFCF6A
:00000001FF
