:020000020000FC
:040000000C9430002C
:04000C000C943F0011
:100060000FE50DBF08E00EBF0FEF01BBBA9800E42B
:1000700005BF00E20BBF00E80FBF0000FECF0E94EB
:1000800086000E9486000E948600B299909AB29BD8
:1000900090980E9486000E948600B299919AB29B25
:1000A00091980E9486000E948600B299929AB29B13
:1000B00092980E9486000E948600B299939AB29B01
:1000C00093980E9486000E948600B299949AB29BEF
:1000D00094980E9486000E948600B299959AB29BDD
:1000E00095980E9486000E948600B299969AB29BCB
:1000F00096980E9486000E948600B299979AB29BB9
:1001000097980E9486000E94860018950EE00A9536
:08011000F1F700000000089562
:00000001FF
