:020000020000FC
:100000000FE50DBF08E00EBF00E00ABB0FEF0BBB12
:10001000A09AA8980E9452000E945200C89BA89AD9
:10002000C899A8980E9452000E945200C99BA89AA1
:10003000C999A8980E9452000E945200CA9BA89A8F
:10004000CA99A8980E9452000E945200CB9BA89A7D
:10005000CB99A8980E9452000E945200CC9BA89A6B
:10006000CC99A8980E9452000E945200CD9BA89A59
:10007000CD99A8980E9452000E945200CE9BA89A47
:10008000CE99A8980E9452000E945200CF9BA89A35
:10009000CF99A8980E9452000E945200A89A0E94EC
:1000A0005200B7CF0EE00A95F1F700000000089566
:00000001FF
