:020000020000FC
:100000000FE50DBF08E00EBF00E00ABB0FEF0BBB12
:10001000A09AA89A0E9444000E9444000E944400B2
:100020000E9444000E9444000E944400A8980E943C
:10003000440005E000000A95F1F731E00E94390024
:1000400032E00E94390034E00E94390038E00E941A
:10005000390030E10E94390030E20E94390030E47A
:100060000E94390030E80E943900A89A0E9444009A
:10007000D1CF59B35095532366275613A89A5313DB
:10008000A8980E94440008950E9449000E944900D7
:0C00900008954AE04A95F1F70000089539
:00000001FF
